:100000000C942A000C9437060C945E060C9485061A
:100010000C9447000C9447000C942B070C94D906C1
:100020000C9402070C94B0060C9447000C945407EF
:100030000C9447000C943C080C9447000C94470027
:100040000C9447000C9447000C9447000C94470014
:100050000C94470011241FBECFE5D8E0DEBFCDBF12
:1000600012E0A0E6B0E0E8E4FCE102C005900D92E9
:10007000AA36B107D9F722E0AAE6B2E001C01D9284
:10008000A73AB207E1F70E941A060C94220E0C94CC
:1000900000000F930E941F060E94690386E00E94E1
:1000A000B9040E94A9030E943A030E9494030E948B
:1000B0001A0560E875E280E090E00E94ED0780E3B9
:1000C00091E00E94A002E0E6F0E001900020E9F754
:1000D00031979F012056304040E050E000E060E65C
:1000E00070E08BE391E00E94D6020F910895EF92A9
:1000F000FF920F931F93CF93DF9380E00E944903F9
:1001000080936E028E3150F486E00E94A2048FE349
:1001100091E0909386028093850209C086E00E9458
:10012000AD0483E491E090938602809385028091F0
:100130006E02873450F08AE50E94770387E491E0ED
:10014000909396028093950209C080E00E94770305
:100150008AE491E090939602809395020E94720443
:1001600080936D028E324CF00E9441038FE391E048
:1001700090939A028093990208C00E94450383E4F9
:1001800091E090939A02809399020E948A0480934E
:100190006C02823348F40E94A2038FE391E09093B3
:1001A000800280937F0208C00E949B0383E491E059
:1001B0009093800280937F0280916B02813009F4DA
:1001C00086C020F0823009F409C184C180912801E1
:1001D000882309F453C010922801C0E6D0E0FE0144
:1001E00001900020E9F73197AF014056504060E0A0
:1001F00070E0CE010E94FC0A1F9286E48F931F924A
:100200008EE18F93E5E9F2E081818F9380818F9376
:10021000E5E8F2E081818F9380818F9380916E0277
:100220001F928F938DE491E09F938F93DF93CF93F1
:100230000E94280B09900020E9F721979E01205683
:10024000304040E050E000E060E670E08BE391E099
:100250000E94D60247E851E061E081E00E945A0521
:1002600048E951E061E082E00E945A058DB79EB7EF
:100270000E960FB6F8949EBF0FBE8DBF45E652E0B6
:1002800065E081E00E945A05E0906E02F12C00E0EA
:1002900010E020E030E040E050E065E081E00E94C6
:1002A000F90540918502509186026DE081E00E943F
:1002B0005A0540919502509196026DE082E00E94AD
:1002C0005A0580916A028F5F80936A0203C1809110
:1002D0002801813009F44FC081E080932801C0E6F5
:1002E000D0E0FE0101900020E9F73197AF014056C0
:1002F000504060E070E0CE010E94FC0A1F928DE247
:100300008F93E9E9F2E081818F9380818F938091CF
:100310006D02282F082E000C330B3F938F9389EA30
:1003200091E09F938F93DF93CF930E94280B0990C6
:100330000020E9F721979E012056304040E050E030
:1003400000E060E670E08BE391E00E94D60249EEA7
:1003500051E061E081E00E945A054AEF51E061E01E
:1003600082E00E945A058DB79EB70A960FB6F894A0
:100370009EBF0FBE8DBF45E652E064E081E00E9463
:100380005A0580916D024AE06BE872E0082E000C7D
:10039000990B0E94030B4BE852E064E081E00E945D
:1003A0005A054091990250919A026CE081E00E94B6
:1003B0005A050F2EFDE2EF2EF02DF12C00E010E09B
:1003C00020E030E040E050E069E082E00E94F90582
:1003D00080916A028F5F80936A027CC080912801BD
:1003E000823009F44BC082E080932801C0E6D0E05F
:1003F000FE0101900020E9F73197AF0140565040CF
:1004000060E070E0CE010E94FC0A1F9282E38F93AD
:10041000EFE7F2E081818F9380818F9380916C026E
:100420001F928F938BE092E09F938F93DF93CF93F4
:100430000E94280B09900020E9F721979E01205681
:10044000304040E050E000E060E670E08BE391E097
:100450000E94D60248E452E061E081E00E945A0521
:1004600049E552E061E082E00E945A058DB79EB7EF
:100470000A960FB6F8949EBF0FBE8DBF45E652E0B8
:1004800063E081E00E945A05E0906C02F12C00E0EC
:1004900010E020E030E040E050E063E081E00E94C6
:1004A000F90540917F02509180026DE081E00E9449
:1004B0005A050F2EF2E3EF2EF02D20E030E040E061
:1004C00050E069E082E00E94F90580916A028F5F46
:1004D00080936A0280916A028A3081F410926A02E3
:1004E00090916B029F5F8BEA989F812D11248695D6
:1004F000282F220F820F981B90936B02DF91CF91D0
:100500001F910F91FF90EF9008950F931F93CF933A
:10051000DF938C01FC0101900020E9F73197EF0196
:10052000C81BD90B80E00E9419088C2F0E94190863
:10053000C8010E941D08DF91CF911F910F9108956E
:100540000F931F93CF93DF938C01EBE2F1E00190C7
:100550000020E9F73197EF01CB52D140FC01019027
:100560000020E9F73197E81BF90BEC0FC8E0CE0F3C
:1005700080E10E9419088C2F0E9419088BE291E0FB
:100580000E94850284E00E94190882E00E941908F6
:100590008FEF0E9419088FEF0E941908C8010E946E
:1005A0008502DF91CF911F910F9108958F929F92B5
:1005B000AF92BF92CF92DF92EF92FF920F931F9371
:1005C000CF93DF937C01EB0149015A01FC010190BB
:1005D0000020E9F73197E81BF90B1E2F120F6894E2
:1005E000DD24D1F8D10E002341F082E30E941908E6
:1005F0006894DD24D2F8D10E03C080E30E9419086C
:100600008D2D0E941908C7010E948502002389F0E0
:1006100080912A010E941908809129010E941908DD
:100620008091290190912A01019690932A0180934B
:100630002901C12CD12C76010BC0FE01EC0DFD1D52
:1006400080810E9419088FEFC81AD80AE80AF80AB0
:10065000C814D904EA04FB0480F3DF91CF911F9101
:100660000F91FF90EF90DF90CF90BF90AF909F9051
:100670008F90089581B3806C81BB82B3806882BB08
:10068000089582B3806482BB089582B38F7B82BB5E
:1006900008950E942A06C197BC0180E090E00E9464
:1006A000740920E030E441E754E40E94D30820E0DC
:1006B00030E048EC52E40E94020A9B01AC0160E089
:1006C00070E088EC92E40E9466080E944509CB0124
:1006D00008958FB5826A8FBD8EB58B618EBD83EC18
:1006E00099E097BD86BD81B3806281BB0895682F74
:1006F00070E080E090E00E94760920E030E044E382
:1007000053E40E94D30827ED33E249EF52E40E94FC
:10071000020A27ED33E249EF52E40E9467080E9483
:1007200045097BBD6ABD089587B3806F87BB88B3D9
:100730008F7088BB089588B3806288BB88B38F7E32
:1007400088BB089588B3806188BB88B38F7D88BBE0
:10075000089560E874E88EE190E00E94A5070E9489
:10076000C30768E180E80E94DB0768E283E00E943B
:10077000DB0768E281E00E94DB072FEB8AED90E067
:10078000215080409040E1F700C0000068E281E124
:100790000E94DB072FEB8AED90E0215080409040D3
:1007A000E1F700C000000E94B9070895CF93DF93DE
:1007B0000E94C30768E180E80E94DB0768E283E0EB
:1007C0000E94DB0760E481E10E94DB072FEB8AEDEA
:1007D00090E0215080409040E1F700C000000E946E
:1007E000B9070E94C30768E180E80E94DB0768E25E
:1007F00081E00E94DB070E94CF0760E481E80E944D
:10080000DB070E94E107C82F0E94E707D82F0E944C
:10081000B9078C2F90E0982F88278D2B9695879578
:1008200096958795DF91CF910895CF93DF930E949E
:10083000C30768E180E80E94DB0768E283E00E946A
:10084000DB0760E481E00E94DB072FEB8AED90E09C
:10085000215080409040E1F700C000000E94B9079D
:100860000E94C30768E180E80E94DB0768E281E03C
:100870000E94DB070E94CF0760E481E80E94DB074B
:100880000E94E107C82F0E94E707D82F0E94B907EE
:100890008C2F90E0982F88278D2B929582958F70C2
:1008A00089279F708927DF91CF910895FC0180816E
:1008B000918196958795929582958F7089279F70E3
:1008C00089278253FB0180830895FC0180819181F7
:1008D000929582958F7089279F7089278851FB0197
:1008E00080830895CF93DF9300D01F92CDB7DEB7FA
:1008F0000E94D6039A838983BE016D5F7F4FCE012C
:1009000001960E9456048B810F900F900F90DF91FB
:10091000CF910895CF93DF9300D01F92CDB7DEB76C
:100920000E9415049A838983BE016D5F7F4FCE01BB
:1009300001960E9465048B810F900F900F90DF91BC
:10094000CF9108959BB321E030E002C0220F331F06
:100950008A95E2F7292B2BBB08959BB321E030E069
:1009600002C0220F331F8A95E2F7209529232BBB63
:1009700008959AB321E030E0082E02C0220F331F01
:100980000A94E2F7292B2ABB0E94AD04089588B38C
:10099000816088BB88B38E7F88BB0895CF93C82FB2
:1009A00088B38D7F88BB9C2F907F85B38F70892BF8
:1009B00085BB0E94C704C295C07F85B38F70C82BCA
:1009C000C5BB0E94C7048AE68A95F1F700C0CF91A3
:1009D0000895813029F48FE7860F0E94CE04089590
:1009E0008FEB860F0E94CE040895CF93C82F88B353
:1009F000826088BB9C2F907F85B38F70892B85BBCD
:100A00000E94C704C295C07F85B38F70C82BC5BB39
:100A10000E94C7048AE68A95F1F700C0CF91089535
:100A200081E00E94CE048FE097E20197F1F700C0C9
:100A30000000089584B3806F84BB87B3826087BB56
:100A400087B3816087BB2FEF80E792E02150804021
:100A50009040E1F700C0000082E00E94CE0488E2EE
:100A60000E94CE048CE00E94CE0486E00E94CE0458
:100A70000E94100508950E94F50408950F931F9396
:100A8000CF938C01C0E003C00E94F504CF5FF80152
:100A9000EC0FF11D80818111F7CFCF911F910F9144
:100AA0000895CF93C42F0E94E9048C2F0E943B0528
:100AB000CF910895CF93DF93EA010E94E904CE011C
:100AC0000E943E05DF91CF9108952F923F924F9261
:100AD0005F926F927F928F929F92AF92BF92CF92CE
:100AE000DF92EF92FF920F931F93CF93DF93CDB7D7
:100AF000DEB72D970FB6F894DEBF0FBECDBF2B87A4
:100B00003C874D87852E762E672E382E292EA0E025
:100B10000E94F00AB9F580E30E94F50451C0492C07
:100B2000512C0F2EFAE0AF2EF02DB12CC12CD12C70
:100B3000E12CF12C00E010E02B853C854D85582DF3
:100B4000672D762D832D922D0E94910AE1E0F0E031
:100B5000EC0FFD1FE40DF51D205D20832B853C85EA
:100B60004D85582D672D762D832D922D0E94930A49
:100B70002B873C874D87852E762E672E382E292E83
:100B8000939401C0912C2B853C854D85582D672D64
:100B9000762D832D922DA0E00E94F00A09F0BFCFA0
:100BA0000DC0E92DF0E0319781E090E08C0F9D1FA2
:100BB000E80FF91F80810E94F5049A949110F1CFFB
:100BC0002D960FB6F894DEBF0FBECDBFDF91CF914B
:100BD0001F910F91FF90EF90DF90CF90BF90AF905B
:100BE0009F908F907F906F905F904F903F902F904D
:100BF0000895CF92DF92EF92FF920F931F93CF93BE
:100C0000DF93C22ED32ED42FC52F0E94E9042E2DA0
:100C10003F2D402F512F6C2D7D2D8D2F9C2F0E940D
:100C20006505DF91CF911F910F91FF90EF90DF90BD
:100C3000CF9008950E9449000E947700FDCF87B1B0
:100C40008F73806487B986B1876086B986B1806802
:100C500086B908958F7197B1907E892B87B986B137
:100C6000806486B93699FECF84B195B108951F92FC
:100C70000F920FB60F9211242F933F934F935F93D0
:100C80006F937F938F939F93AF93BF93EF93FF9354
:100C9000E0919F02F091A0020995FF91EF91BF9121
:100CA000AF919F918F917F916F915F914F913F9104
:100CB0002F910F900FBE0F901F9018951F920F92BB
:100CC0000FB60F9211242F933F934F935F936F931F
:100CD0007F938F939F93AF93BF93EF93FF93E09195
:100CE000A102F091A2020995FF91EF91BF91AF91FE
:100CF0009F918F917F916F915F914F913F912F9134
:100D00000F900FBE0F901F9018951F920F920FB665
:100D10000F9211242F933F934F935F936F937F9381
:100D20008F939F93AF93BF93EF93FF93E091A302B1
:100D3000F091A4020995FF91EF91BF91AF919F911E
:100D40008F917F916F915F914F913F912F910F9074
:100D50000FBE0F901F90189583B7887F83BF0895AB
:100D60001F920F920FB60F9211242F933F934F9320
:100D70005F936F937F938F939F93AF93BF93EF9303
:100D8000FF93E0917502F0917602309709F0099592
:100D9000FF91EF91BF91AF919F918F917F916F9153
:100DA0005F914F913F912F910F900FBE0F901F9029
:100DB00018951F920F920FB60F9211242F933F9305
:100DC0004F935F936F937F938F939F93AF93BF9353
:100DD000EF93FF93E0917302F0917402309709F062
:100DE0000995FF91EF91BF91AF919F918F917F9165
:100DF0006F915F914F913F912F910F900FBE0F9088
:100E00001F9018951F920F920FB60F9211242F93D7
:100E10003F934F935F936F937F938F939F93AF9382
:100E2000BF93EF93FF93E0917102F09172023097BC
:100E300009F00995FF91EF91BF91AF919F918F912B
:100E40007F916F915F914F913F912F910F900FBEC6
:100E50000F901F9018951F920F920FB60F921124AA
:100E60002F933F934F935F936F937F938F939F93B2
:100E7000AF93BF93EF93FF93E0916F02F0917002F5
:100E8000309709F00995FF91EF91BF91AF919F9134
:100E90008F917F916F915F914F913F912F910F9023
:100EA0000FBE0F901F9018951F920F920FB60F92C2
:100EB00011242F933F934F935F936F937F938F935F
:100EC0009F93AF93BF93EF93FF9380917B02909199
:100ED0007C02A0917D02B0917E020196A11DB11D00
:100EE00080937B0290937C02A0937D02B0937E025C
:100EF00040917B0250917C0260917D0270917E0254
:100F00008091770290917802A0917902B0917A0253
:100F1000481759076A077B0739F4E091A502F09159
:100F2000A60209950E94AC06FF91EF91BF91AF9187
:100F30009F918F917F916F915F914F913F912F91F1
:100F40000F900FBE0F901F9018959B01AC0160E0B1
:100F500072E18AE790E00E946F0ADA01C9014097C6
:100F6000A109B109B695A7959795879580B911B84C
:100F7000089584E986BF06B604FCFDCF089506B641
:100F800007FEFDCF089584EA86BF0E94BF0781B1A6
:100F9000887F883011F080E0089581E0089584EA28
:100FA00086BF0E94BF0781B1887F803111F080E049
:100FB000089581E0089583B984E886BF0E94BF0741
:100FC000089584EC86BF0E94BF0783B1089584E82A
:100FD00086BF0E94BF0783B10895DC01CB01880F53
:100FE000991FAA1FBB1F880F991FAA1FBB1F9C0117
:100FF000AD01220F331F441F551F220F331F441F03
:10100000551F60E072E18AE790E00E946F0ABA0122
:10101000A9014150510961097109BB27A72F962FDA
:10102000852F80BD49B988E98AB986E880BD789462
:1010300008955D9BFECF8CB90895CF92DF92EF9219
:10104000FF92CF93DF93EC01C12CD12C760107C026
:101050000E9419088FEFC81AD80AE80AF80AFE0198
:10106000EC0DFD1D80818111F3CFDF91CF91FF90B9
:10107000EF90DF90CF9008951F920F920FB60F92CE
:1010800011242F933F934F935F936F937F938F938D
:101090009F93AF93BF93EF93FF934CB150E065E004
:1010A00070E082E090E00E945105FF91EF91BF91C6
:1010B000AF919F918F917F916F915F914F913F91F0
:1010C0002F910F900FBE0F901F9018955058BB276F
:1010D000AA270E947E080C94C8090E94BA0938F019
:1010E0000E94C10920F039F49F3F19F426F40C94B2
:1010F000B7090EF4E095E7FB0C94B109E92F0E94C3
:10110000D90958F3BA17620773078407950720F0C7
:1011100079F4A6F50C94FB090EF4E0950B2EBA2F8A
:10112000A02D0B01B90190010C01CA01A0011124ED
:10113000FF27591B99F0593F50F4503E68F11A1699
:10114000F040A22F232F342F4427585FF3CF46952A
:1011500037952795A795F0405395C9F77EF41F164C
:10116000BA0B620B730B840BBAF09150A1F0FF0F16
:10117000BB1F661F771F881FC2F70EC0BA0F621F02
:10118000731F841F48F4879577956795B795F795F2
:101190009E3F08F0B0CF9395880F08F09927EE0F87
:1011A0009795879508950E94E7080C94C8090E94B6
:1011B000C10958F00E94BA0940F029F45F3F29F0B4
:1011C0000C94B10951110C94FC090C94B7090E94BC
:1011D000D90968F39923B1F3552391F3951B550B66
:1011E000BB27AA2762177307840738F09F5F5F4FFA
:1011F000220F331F441FAA1FA9F335D00E2E3AF039
:10120000E0E832D091505040E695001CCAF72BD050
:10121000FE2F29D0660F771F881FBB1F26173707A1
:101220004807AB07B0E809F0BB0B802DBF01FF27D3
:1012300093585F4F3AF09E3F510578F00C94B109F6
:101240000C94FC095F3FE4F3983ED4F386957795C0
:101250006795B795F7959F5FC9F7880F911D96958C
:10126000879597F90895E1E0660F771F881FBB1FE8
:10127000621773078407BA0720F0621B730B840B95
:10128000BA0BEE1F88F7E09508950E94E10988F0F7
:101290009F5798F0B92F9927B751B0F0E1F0660F3A
:1012A000771F881F991F1AF0BA95C9F714C0B1307B
:1012B00091F00E94FB09B1E008950C94FB09672F9F
:1012C000782F8827B85F39F0B93FCCF386957795AA
:1012D0006795B395D9F73EF4909580957095619593
:1012E0007F4F8F4F9F4F0895E89409C097FB3EF4BE
:1012F00090958095709561957F4F8F4F9F4F992363
:10130000A9F0F92F96E9BB279395F69587957795E0
:101310006795B795F111F8CFFAF4BB0F11F460FFA0
:101320001BC06F5F7F4F8F4F9F4F16C0882311F0F8
:1013300096E911C0772321F09EE8872F762F05C00C
:10134000662371F096E8862F70E060E02AF09A95A7
:10135000660F771F881FDAF7880F9695879597F99C
:10136000089597F99F6780E870E060E008959FEF27
:1013700080EC089500240A9416161706180609062C
:10138000089500240A9412161306140605060895FB
:10139000092E0394000C11F4882352F0BB0F40F483
:1013A000BF2B11F460FF04C06F5F7F4F8F4F9F4FC3
:1013B000089557FD9058440F551F59F05F3F71F045
:1013C0004795880F97FB991F61F09F3F79F08795AC
:1013D0000895121613061406551FF2CF4695F1DF35
:1013E00008C0161617061806991FF1CF86957105C5
:1013F000610508940895E894BB2766277727CB01F9
:1014000097F908950E94150A0C94C8090E94BA0918
:1014100038F00E94C10920F0952311F00C94B10915
:101420000C94B70911240C94FC090E94D90970F39B
:10143000959FC1F3950F50E0551F629FF001729F79
:10144000BB27F00DB11D639FAA27F00DB11DAA1F88
:10145000649F6627B00DA11D661F829F2227B00DD5
:10146000A11D621F739FB00DA11D621F839FA00D60
:10147000611D221F749F3327A00D611D231F849FB0
:10148000600D211D822F762F6A2F11249F57504007
:101490009AF0F1F088234AF0EE0FFF1FBB1F661F82
:1014A000771F881F91505040A9F79E3F510580F04B
:1014B0000C94B1090C94FC095F3FE4F3983ED4F31B
:1014C000869577956795B795F795E7959F5FC1F7EF
:1014D000FE2B880F911D9695879597F90895A1E2A7
:1014E0001A2EAA1BBB1BFD010DC0AA1FBB1FEE1F9E
:1014F000FF1FA217B307E407F50720F0A21BB30BE9
:10150000E40BF50B661F771F881F991F1A9469F764
:1015100060957095809590959B01AC01BD01CF01C0
:101520000895689401C0E8948F929F92CF93DF93BF
:101530000E949F0ADF91CF919F908F9008958824F9
:101540009924F401E401B0E49F93AA279A158B042F
:101550009C04ED05FE05CF05D007A10798F4AD2F3B
:10156000DC2FCF2FFE2FE92D982C892E982F872F37
:10157000762F652F542F432F322F2227B85031F763
:10158000BF9127C01B2EBF91BB27220F331F441FC3
:10159000551F661F771F881F991F881C991CEE1FF7
:1015A000FF1FCC1FDD1FAA1FBB1F8A149B04EC0565
:1015B000FD05CE05DF05A007B10748F08A189B0896
:1015C000EC09FD09CE09DF09A00BB10B21601A94CB
:1015D000E1F62EF49401AF01BE01CD01000C089597
:1015E0000024A7FD00942A1730054005500560052A
:1015F0007005800590050895DC0101C06D93415090
:101600005040E0F70895BB274A3031F4992322F483
:10161000BDE2909581959F4F0C940F0BBB27FB016A
:101620005527AA27880F991FAA1FA41710F0A41BDB
:1016300083955051B9F7A05DAA3308F0A95DA19335
:10164000009779F7B111B1931192CB010C94410D30
:10165000AEE0B0E0EEE2FBE00C94F90D0D891E89DE
:1016600086E08C831A8309838FEF9FE79E838D83A7
:10167000AE01475E5F4F6F89788DCE0101960E9463
:101680004A0BEF81F885E00FF11F10822E96E4E0FF
:101690000C94150EABE0B0E0E0E5FBE00C94EB0D34
:1016A0006C017B018A01FC0117821682838181FF14
:1016B000CCC1CE0101963C01F6019381F70193FD67
:1016C000859193FF81917F01882309F4BAC1853206
:1016D00039F493FD859193FF81917F01853229F43F
:1016E000B60190E00E94510DE7CF912C212C312CB6
:1016F000FFE1F315D8F08B3279F038F4803279F0CD
:101700008332A1F4232D20611DC08D3261F080331E
:1017100069F4232D216016C0832D8260382EE32DBD
:10172000E4603E2E2AC0F32DF8601DC037FC2DC0AA
:1017300020ED280F2A3040F08E32B9F436FC81C1FA
:10174000232D2064322E19C036FE06C08AE0989EF2
:10175000200D1124922E11C0EAE02E9E200D11249E
:10176000222EF32DF0623F2E08C08C3621F4832DFB
:101770008068382E02C0883641F4F70193FD8591C8
:1017800093FF81917F018111B3CF982F9F7D955455
:10179000933028F40C5F1F4F9FE399830DC083366D
:1017A00031F0833771F0833509F059C021C0F80159
:1017B000808189830E5F1F4F88248394912C53016D
:1017C00013C02801F2E04F0E511CF801A080B18037
:1017D00036FE03C0692D70E002C06FEF7FEFC501D8
:1017E0000E94360D4C018201F32DFF773F2E16C06B
:1017F000280122E0420E511CF801A080B18036FE83
:1018000003C0692D70E002C06FEF7FEFC5010E9439
:101810002B0D4C01F32DF0683F2E820133FC1BC0D1
:10182000822D90E088169906B0F4B60180E290E02F
:101830000E94510D2A94F4CFF50137FC859137FEB3
:1018400081915F01B60190E00E94510D21102A9410
:1018500021E0821A91088114910471F7E8C084365E
:1018600011F0893641F5F80137FE07C060817181BA
:10187000828193810C5F1F4F08C060817181072EA8
:10188000000C880B990B0E5F1F4FF32DFF763F2E38
:1018900097FF09C090958095709561957F4F8F4F08
:1018A0009F4FF0683F2E2AE030E0A3010E948D0D8B
:1018B000882E861845C0853731F4232D2F7EB22E11
:1018C0002AE030E025C0932D997FB92E8F36C1F0E4
:1018D00018F4883579F0B5C0803719F0883721F0D1
:1018E000B0C0E92FE061BE2EB4FE0DC0FB2DF46048
:1018F000BF2E09C034FE0AC0292F2660B22E06C0B2
:1019000028E030E005C020E130E002C020E132E014
:10191000F801B7FE07C060817181828193810C5FFD
:101920001F4F06C06081718180E090E00E5F1F4F05
:10193000A3010E948D0D882E8618FB2DFF773F2E68
:1019400036FE0DC0232D2E7FA22E891458F434FEAE
:101950000BC032FC09C0832D8E7EA82E05C0B82C8A
:10196000A32C03C0B82C01C0B92CA4FE0FC0FE01EB
:10197000E80DF11D8081803321F49A2D997EA92EE6
:1019800009C0A2FE06C0B394B39404C08A2D867821
:1019900009F0B394A3FC11C0A0FE06C0B21488F4F1
:1019A000280C922C9B180EC0B21460F4B60180E291
:1019B00090E00E94510DB394F7CFB21418F42B1895
:1019C00002C0982C212CA4FE10C0B60180E390E048
:1019D0000E94510DA2FE17C0A1FC03C088E790E051
:1019E00002C088E590E0B6010CC08A2D867859F0D7
:1019F000A1FE02C08BE201C080E2A7FC8DE2B6012D
:101A000090E00E94510D891438F4B60180E390E013
:101A10000E94510D9A94F7CF8A94F301E80DF11DBD
:101A20008081B60190E00E94510D8110F5CF2220F7
:101A300009F442CEB60180E290E00E94510D2A9452
:101A4000F6CFF6018681978102C08FEF9FEF2B962C
:101A5000E2E10C94070EFC0105906150704001100A
:101A6000D8F7809590958E0F9F1F0895FC016150C7
:101A7000704001900110D8F7809590958E0F9F1FB0
:101A80000895DC01FC01672F71917723E1F732970C
:101A900004C07C916D9370836291AE17BF07C8F349
:101AA00008950F931F93CF93DF93FB01238121FDB3
:101AB00003C08FEF9FEF2CC022FF16C046815781D5
:101AC000248135814217530744F4A081B1819D01DF
:101AD0002F5F3F4F318320838C93268137812F5F87
:101AE0003F4F3783268314C08B01EC01FB01008438
:101AF000F185E02D0995892BE1F6D80116968D9197
:101B00009C911797019617969C938E931697CE01EA
:101B1000DF91CF911F910F910895FA01AA272830E4
:101B200051F1203181F1E8946F936E7F6E5F7F4FAA
:101B30008F4F9F4FAF4FB1E03ED0B4E03CD0670F26
:101B4000781F891F9A1FA11D680F791F8A1F911D79
:101B5000A11D6A0F711D811D911DA11D20D009F4C9
:101B600068943F912AE0269F11243019305D31930B
:101B7000DEF6CF010895462F4770405D4193B3E0F4
:101B80000FD0C9F7F6CF462F4F70405D4A3318F09B
:101B9000495D31FD4052419302D0A9F7EACFB4E04C
:101BA000A6959795879577956795BA95C9F7009704
:101BB0006105710508959B01AC010A2E06945795A5
:101BC000479537952795BA95C9F7620F731F841FFC
:101BD000951FA01D08952F923F924F925F926F9292
:101BE0007F928F929F92AF92BF92CF92DF92EF92AD
:101BF000FF920F931F93CF93DF93CDB7DEB7CA1B2E
:101C0000DB0B0FB6F894DEBF0FBECDBF09942A8858
:101C1000398848885F846E847D848C849B84AA8400
:101C2000B984C884DF80EE80FD800C811B81AA818D
:101C3000B981CE0FD11D0FB6F894DEBF0FBECDBF58
:081C4000ED010895F894FFCFB7
:101C480057656C636F6D6520746F20477265656EAC
:101C580020486F7573652053797374656D000000B3
:101C6800000000000000000000000000000000006C
:101C7800000000000000000000000000000000005C
:101C8800000000000000000000000000000000004C
:101C9800000000000000000000000000000000003C
:101CA800000000000000000000000000000000002C
:101CB800000000000000000000000000000000001C
:101CC800000000000000000000000000000000000C
:101CD80000000000000000000000000000000000FC
:101CE80000000000000000000000000000000000EC
:101CF80000000000000000000000000000000000DC
:101D080000000000000000000301004D5154540081
:101D1800477265656E486F75736500474843004FA5
:101D28004E20004F4646003930003020004C4452C7
:101D38002056616C75653D2564200A4C4544207326
:101D4800746174653A2573200A536572766F206151
:101D58006E676C653A2573200A4C524C3A2564200C
:101D68004C52483A2564004C44523A202020204CDA
:101D780045443A2020202000534552564F20616E9A
:101D8800676C653A202020200043757272656E7476
:101D98002074656D70657261747572653D25642087
:101DA8000A46616E2053746174653A2573200A549B
:101DB80068726573686F6C642074656D70657261B4
:101DC80074757265203D25640020633D2020202025
:101DD80046616E3A20202020200020202020205418
:101DE800743A20202020202020200043757272653C
:101DF8006E742048756D6964697479203D25642086
:101E08000A56616C76652053746174653A257320AF
:101E18000A5468726573686F6C642048756D6964EC
:101E2800697479203D256400683D20202020566192
:101E38006C76653A2020202000202020202054683D
:0A1E48003A20202020202020200056
:00000001FF
